:100000000C94F61B0C94271C0C94271C0C94271C96
:100010000C94271C0C94271C0C94271C0C94271C54
:100020000C94271C0C94271C0C94271C0C94271C44
:100030000C94271C0C944AC80C94271C0C94271C65
:100040000C94271C0C94472A0C94271C0C94271CF6
:100050000C94271C0C94271C0C94E0280C944EDC68
:100060000C94271C0C94B87B0C94625E0C94271C97
:100070000C94271C0C94271C0C94271C0C94271CF4
:100080000C94271C0C94271C0C94271C0C94271CE4
:100090000C94271C0C94271C0C94271C0C94271CD4
:1000A0000C94271C0C94271C0C94271C0C94271CC4
:1000B0000C94271C0C94271C0C94271C0C94271CB4
:1000C0000C94271C0C94271C0C94271C0C94271CA4
:1000D0000C94271C0C94271C0C94A03A0C94613AA5
:1000E0000C94271C084AD73B3BCE016E84BCBFFD55
:1000F000C12F3D6C74319ABD56833DDA3D00C77FF8
:1001000011BED9E4BB4C3E916BAAAABE0000008090
:100110003F05A84CCDB2D44EB93836A9020C50B91F
:10012000918688083CA6AAAA2ABE000000803F004B
:100130004E414E494E495459494E46CDCCCC3D0ACC
:10014000D7233C17B7D13877CC2B329595E6241FAF
:10015000B14F0A000020410000C84200401C462068
:10016000BCBE4CCA1B0E5AAEC59D74434F4D4D5577
:100170004E49434154494F4E0044525952554E0046
:100180004552524F525300494E464F004543484F47
:10019000004572726F722077726974696E6720749D
:1001A0006F20454550524F4D210A00363726032B0C
:1001B0003C3D382A2E303E1224221E1A1C180844B8
:1001C0000A2C4308092C070001627573793A2070E4
:1001D000617573656420666F7220696E7075740A4C
:1001E00000627573793A2070617573656420666F7B
:1001F0007220757365720A00627573793A207072A5
:100200006F63657373696E670A00544654205365C3
:100210007269616C2044656275673A2046696C6159
:100220006D656E742072756E6F75742E2E2E204A59
:1002300031350A004A3135002044454255473A20BD
:100240004149334D20506175736520537461746565
:100250003A200044454255473A20333030306D73E0
:100260002064656C617920646F6E650A00544654A1
:100270002053657269616C2044656275673A204657
:10028000696C616D656E742072756E6F7574207225
:1002900065636F76657265640A0044454255473A66
:1002A000205365742066696C616D656E742074728C
:1002B00069676765722074696D650A005072696EBE
:1002C0007465722073746F70706564206475652046
:1002D000746F206572726F72732E20466978207475
:1002E0006865206572726F7220616E642075736537
:1002F000204D39393920746F2072657374617274BE
:100300002E202854656D7065726174757265206960
:10031000732072657365742E205365742069742090
:1003200061667465722072657374617274696E6758
:10033000290A004E6F20436865636B73756D2077E3
:10034000697468206C696E65206E756D6265722CCB
:10035000204C617374204C696E653A20004E6F200A
:10036000436865636B73756D2077697468206C6989
:100370006E65206E756D6265722C204C6173742001
:100380004C696E653A2000636865636B73756D2018
:100390006D69736D617463682C204C617374204CBB
:1003A000696E653A20004C696E65204E756D626518
:1003B00072206973206E6F74204C617374204C69D5
:1003C0006E65204E756D6265722B312C204C617309
:1003D00074204C696E653A20004D31313000534431
:1003E0002072656164206572726F720A002121209B
:1003F0004B494C4C20636175736564206279204BD6
:10040000494C4C20627574746F6E2F70696E0A00CF
:100410002121204B494C4C20636175736564206237
:100420007920746F6F206D75636820696E616374E5
:100430006976652074696D65202D2063757272651B
:100440006E7420636F6D6D616E643A200065636841
:100450006F3A004572726F723A000A4D65617375AA
:1004600072656420706F696E74733A0A003578356E
:10047000206D6573682E205A206F66667365743A26
:10048000200053656E64204D31303820746F207227
:100490006573756D650A00496E73657274206669CF
:1004A0006C616D656E7420616E642073656E64208E
:1004B0004D3130380A002044454255473A204E54C9
:1004C0004F202D204149334D2050617573652053D5
:1004D000746174652073657420746F3A20005365ED
:1004E0006E64204D31303820746F2068656174204F
:1004F0006E6F7A7A6C650A002044454255473A206F
:100500004E544F202D204149334D20506175736565
:100510002053746174652073657420746F3A2000F1
:10052000486F74656E6420746F6F20636F6C640A2B
:1005300000496E736572742066696C616D656E74D6
:1005400020616E642073656E64204D3130380A007E
:100550002044454255473A204E544F202D204149D2
:10056000334D205061757365205374617465207339
:10057000657420746F3A200057616974696E672052
:10058000666F72206865617475702E0A003F537043
:100590006563696669656420582C5920636F6F72C2
:1005A00064696E617465206F7574206F6620626F78
:1005B000756E64732E0A003F285229657065617458
:1005C0002076616C7565206E6F7420706C61757338
:1005D00069626C653B206D7573742062652061747F
:1005E000206C6561737420312E0A003F2852296502
:1005F00070656174206D7573742062652073706519
:10060000636966696564207768656E206E6F742023
:100610007573696E6720616E204C43442E0A003F5B
:10062000537065636966696564206E6F7A7A6C657C
:100630002074656D7065726174757265206E6F747B
:1006400020706C61757369626C652E0A003F53708F
:10065000656369666965642066696C616D656E7461
:100660002073697A65206E6F7420706C6175736990
:10067000626C652E0A003F53706563696669656444
:10068000207072696D65206C656E677468206E6F8E
:100690007420706C61757369626C652E0A003F503E
:1006A00072696D65206C656E677468206D75737412
:1006B0002062652073706563696669656420776888
:1006C000656E206E6F74207573696E6720616E2091
:1006D0004C43442E0A003F53706563696669656444
:1006E000206E6F7A7A6C652073697A65206E6F74FC
:1006F00020706C61757369626C652E0A003F496EEB
:1007000076616C69642052657472616374696F6E9E
:100710002F556E72657472616374696F6E207261B9
:1007200074696F2E204D757374206265207769742B
:1007300068696E20356D6D2E0A0020556E726574E5
:1007400072616374696F6E20616D6F756E74206184
:1007500075746F6D61746963616C6C792073657415
:1007600020746F20003F556E726574726163746906
:100770006F6E206C656E677468206D75737420628F
:1007800065207370656369666965642E0A003F536E
:10079000706563696669656420556E72657472611F
:1007A0006374696F6E206C656E677468206E6F7419
:1007B00020706C61757369626C652E0A003F52652A
:1007C0007472616374696F6E206C656E6774682003
:1007D0006D75737420626520737065636966696501
:1007E000642E0A003F537065636966696564205230
:1007F000657472616374696F6E206C656E6774688E
:10080000206E6F7420706C61757369626C652E0A5E
:10081000003F537065636966696564206C61796542
:100820007220686569676874206E6F7420706C61EF
:10083000757369626C652E0A0043292E0A003F53C6
:100840007065636966696564206265642074656DBE
:100850007065726174757265206E6F7420706C6162
:10086000757369626C65202834302D00473236205C
:100870007374617274696E672E2E2E0A00206E6F7B
:100880007420656E74657265642E0A004732380004
:10089000206F6620004D424C2047323920706F692E
:1008A0006E742000290A004A206F7574206F66203C
:1008B00072616E67652028302D00290A0049206F7B
:1008C0007574206F662072616E67652028302D0078
:1008D0004D6573682070726F62696E6720646F6E19
:1008E000652E0A005374617274206D657368207000
:1008F000726F62696E6720776974682022473239A7
:10090000205331222066697273742E0A00473238F0
:100910000A47323920533200686173206E6F2064B9
:100920006174612E0A004D65736820426564204C35
:100930006576656C696E67200053206F7574206F53
:10094000662072616E67652028302D35292E0A00D9
:10095000486F74656E6420746F6F20636F6C640AF7
:100960000044454255473A20536574205446547319
:100970007461746520746F20534450415553455F32
:100980005245510A0044454255473A20456E746528
:1009900072204D3630302054465473746174652093
:1009A000726F7574696E650A002044454255473A76
:1009B000204D363030202D204149334D2050617577
:1009C00073652053746174652073657420746F3A85
:1009D000200020496E76616C6964206578747275B8
:1009E000646572200047322F4733206261642070B3
:1009F0006172616D65746572730A004D657368207C
:100A0000706F696E742063616E6E6F742062652012
:100A10007265736F6C7665640A00456E6420666962
:100A20006C65206C6973740A00426567696E2066A4
:100A3000696C65206C6973740A00286E6F206669A2
:100A40006C65290043757272656E742066696C6509
:100A50003A20005344207072696E74696E67206298
:100A600079746520004E6F74205344207072696E53
:100A700074696E670A002E0A0044656C6574696FBC
:100A80006E206661696C65642C2046696C653A204D
:100A90000046696C652064656C657465643A005055
:100AA00072696E742074696D653A20000A5374612E
:100AB00074733A2046696C616D656E742075736558
:100AC000643A20002C204C6F6E67657374206A6F47
:100AD000623A2000546F74616C2074696D653A202D
:100AE0000053746174733A20002C204661696C6570
:100AF000643A20002C2046696E69736865643A2068
:100B0000005072696E74733A200053746174733AC2
:100B100020005446542053657269616C204465621C
:100B200075673A204E6F7A7A6C6520697320686524
:100B30006174696E672E2E2E204A30360A004A30C4
:100B400036005446542053657269616C20446562D6
:100B500075673A204265642068656174696E672034
:100B6000697320646F6E652E2E2E204A30390A007C
:100B70004A3039006F6B006F6666008C0187018018
:100B80000179016B0144454255473A004D313133FB
:100B90002053005446542053657269616C204465AB
:100BA0006275673A204265642069732068656174E4
:100BB000696E672E2E2E204A30380A004A303800DF
:100BC0004348414D4245525F54454D504552415472
:100BD000555245004D4F54494F4E5F4D4F4445537C
:100BE00000544845524D414C5F50524F5445435478
:100BF000494F4E004155544F5245504F52545F5348
:100C0000445F5354415455530050524F4D50545F1C
:100C1000535550504F525400454D455247454E4351
:100C2000595F50415253455200434153455F4C492F
:100C30004748545F4252494748544E455353005425
:100C40004F47474C455F4C494748545300534F4624
:100C500054574152455F504F574552004255494CF9
:100C6000445F50455243454E54004C4556454C490F
:100C70004E475F44415441005A5F50524F42450035
:100C80004155544F4C4556454C005052494E545FC7
:100C90004A4F420050524F4752455353004155541A
:100CA0004F5245504F52545F54454D5000564F4C93
:100CB000554D455452494300454550524F4D004211
:100CC000494E4152595F46494C455F5452414E533B
:100CD0004645520053455249414C5F584F4E5F586C
:100CE0004F4646004649524D574152455F4E414D91
:100CF000453A4D61726C696E20322E302E342E349E
:100D00002028646176696472616D69726F2C204776
:100D1000697468756229204D41524C494E2D4149F4
:100D2000334D5F56455253494F4E3A76322E302E50
:100D30003120534F555243455F434F44455F555211
:100D40004C3A68747470733A2F2F676974687562CF
:100D50002E636F6D2F646176696472616D69726F65
:100D60002F4D61726C696E2D4169334D2D322E30DD
:100D70002E782050524F544F434F4C5F564552539C
:100D8000494F4E3A312E30204D414348494E455F40
:100D9000545950453A416E796375626963206933ED
:100DA000204D6567612045585452554445525F4374
:100DB0004F554E543A3120555549443A6365646560
:100DC000326132662D343161322D343734382D3969
:100DD0006231322D633535633632663336376666B7
:100DE0000A002F2F2000205200416363656C65725A
:100DF0006174696F6E3A2050003F4A206F7574200D
:100E00006F662072616E67652028302E3031207445
:100E10006F20302E33290A0020580020204D6178A1
:100E20003A2000200020204D696E3A2000536F6662
:100E30007420656E6473746F70733A200020466C82
:100E40006F773A200050726F746563746564205048
:100E5000696E0A0020643A0020693A0020703A0066
:100E6000496E76616C696420657874727564657228
:100E70000A0020643A0020693A0020703A00646950
:100E80007300656E0043290A0061626C6564202866
:100E90006D696E2074656D702000436F6C64206511
:100EA000787472756465732061726520004F4646E0
:100EB000004F4E004F46460A004661646520486573
:100EC000696768742000426564204C6576656C69CA
:100ED0006E6720004661696C656420746F20656EE2
:100EE00061626C6520426564204C6576656C696E54
:100EF000670A004D65736820426564204C6576651D
:100F00006C20646174613A0A00496E76616C6964B0
:100F1000206D6573682E0A004D65736820706F69D7
:100F20006E742063616E6E6F7420626520726573EB
:100F30006F6C7665640A004D34323120696E636FE0
:100F4000727265637420706172616D657465722080
:100F500075736167650A00546F6F20666172206661
:100F6000726F6D207265666572656E636520706F65
:100F7000696E740A00454550524F4D204F4B0A0090
:100F80004D38383820636F6F6C646F776E20726FE6
:100F90007574696E6520646F6E650A0054617267CE
:100FA0006574206E6F7420726561636865642C20BF
:100FB00071756575656420616E206172630A005504
:100FC0006C7472616261736520636F6F6C646F77BC
:100FD0006E20737461727465640A003F4B20766101
:100FE0006C7565206F7574206F662072616E676521
:100FF0002028302D3130292E0A00416476616E633D
:1010000065204B3D004361703A00220A00656E7115
:1010100075657565696E672022006F6B0052657398
:10102000656E643A20002569730025696D20256985
:1010300073002569682025696D202569730025697D
:1010400064202569682025696D202569730025695C
:101050007920256964202569682025696D20256926
:10106000730023646566696E652044454641554CAE
:10107000545F0000626564004B6420004B692000EF
:101080004B702000504944204175746F74756E6533
:101090002066696E697368656421205075742074D8
:1010A0006865206C617374204B702C204B69206143
:1010B0006E64204B6420636F6E7374616E74732072
:1010C00066726F6D2062656C6F7720696E746F2039
:1010D000436F6E66696775726174696F6E2E680A18
:1010E00000504944204175746F74756E65206661C7
:1010F000696C6564212074696D656F75740A0050B0
:101100004944204175746F74756E65206661696C21
:101110006564212054656D70657261747572652017
:10112000746F6F20686967680A00204B643A20007A
:10113000204B693A2000204B703A20000A20436C73
:10114000617373696320504944200A00204B643A5C
:101150002000204B693A2000204B703A20000A20E2
:101160004E6F206F76657273686F6F740A0020543B
:10117000753A2000204B753A2000206D61783A20A6
:1011800000206D696E3A200020643A2000206269D8
:1011900061733A2000504944204175746F74756E34
:1011A000652073746172740A00504944204175745B
:1011B0006F74756E65206661696C65642120546585
:1011C0006D706572617475726520746F6F206869E7
:1011D00067680A00504944204175746F74756E65E4
:1011E000206661696C6564212042616420657874C1
:1011F0007275646572206E756D6265720A0000001A
:1012000057430000574300004D430000A0C00000BA
:10121000000000000000290A002062797465733B19
:1012200020637263200053657474696E6773205382
:10123000746F726564202800454550524F4D2064FC
:1012400061746173697A65206572726F722E0A002B
:10125000290A002062797465733B20637263200061
:101260002073746F7265642073657474696E67733C
:101270002072657472696576656420280020286391
:10128000616C63756C6174656429210A0020213DDD
:101290002000454550524F4D20435243206D697305
:1012A0006D61746368202D202873746F72656429E2
:1012B00020002053697A653A2000496E6465783AC7
:1012C0002000204D61726C696E3D563736290A0048
:1012D000454550524F4D2076657273696F6E206D93
:1012E00069736D617463682028454550524F4D3DC8
:1012F0000048617264636F6465642044656661756B
:101300006C742053657474696E6773204C6F6164EC
:1013100065640A000000FA430000FA430000C04080
:101320000000F0410000A0420000A0420000C843BD
:101330000000C043B80B0000D00700003C000000D4
:10134000102700003B200020204D363033200020A5
:1013500055004C0046696C616D656E74206C6F6160
:10136000642F756E6C6F6164206C656E6774687352
:101370003A0020204D393030204B004C696E6561B9
:101380007220416476616E63653A00204400204912
:101390000020204D333034205000204400204900EC
:1013A00020204D3330312050005049442073657463
:1013B00074696E67733A0020204732392053342015
:1013C0005A00204A00202047323920533320490058
:1013D00020204D3432302053004D65736820426523
:1013E00064204C6576656C696E673A0020204D324A
:1013F0003036205800486F6D65206F6666736574DF
:101400003A00204A0020530020204D32303520423F
:1014100000416476616E6365643A20423C6D696E9A
:101420005F7365676D656E745F74696D655F757315
:101430003E20533C6D696E5F6665656472617465DC
:101440003E20543C6D696E5F74726176656C5F66B8
:10145000656564726174653E204A3C6A756E635FBF
:101460006465763E0020540020520020204D32302A
:1014700034205000416363656C65726174696F6EFE
:101480002028756E6974732F7332293A20503C708E
:1014900072696E745F616363656C3E20523C726575
:1014A00074726163745F616363656C3E20543C7465
:1014B000726176656C5F616363656C3E0020204DF0
:1014C0003230312058004D6178696D756D2041636F
:1014D00063656C65726174696F6E2028756E6974DE
:1014E000732F7332293A0020204D323033205800B8
:1014F0004D6178696D756D206665656472617465AE
:10150000732028756E6974732F73293A00537465BC
:1015100070732070657220756E69743A0020204DDA
:101520003230302044300A0020204D323030204408
:10153000002044697361626C65640A0046696C61ED
:101540006D656E742073657474696E67733A0020FC
:10155000286D6D29002020473231202020203B209B
:10156000556E69747320696E206D6D006F70656EC5
:1015700000545249474745524544003A20007A5F9B
:101580006D696E00795F6D696E00785F6D617800DE
:10159000785F6D696E005265706F7274696E672056
:1015A000656E6473746F70207374617475730A0070
:1015B000205A3A0020593A0020436F756E74205823
:1015C0003A0020453A00205A3A0020593A00583A49
:1015D0000020746F6F206C6F6E6720657874727571
:1015E00073696F6E2070726576656E7465640A004B
:1015F00020636F6C6420657874727573696F6E20F8
:1016000070726576656E7465640A000000A0C000A3
:1016100000000000000000000048420000484200B6
:101620000080405761726E696E673A20486F6D693D
:101630006E672042756D702044697669736F722001
:101640003C20310A000202040000A0400000A0403B
:101650000000004000005C430000574300004D4381
:10166000FFFFFF00000001000000010000800055A6
:101670005555000000400033333300AAAA2A004920
:1016800092240000002000C7711C0099991900D114
:10169000451700555515003BB113002449120011A0
:1016A000111100000010000F0F0F00E3380E00436F
:1016B000790D00CCCC0C00C3300C00E8A20B006408
:1016C000210B00AAAA0A00703D0A009DD809004219
:1016D0007B090092240900DCD308008888080010E8
:1016E00042080000000800F0C10700878707007566
:1016F000500700711C07003EEB0600A1BC06006904
:1017000090060066660600703E0600611806001727
:10171000F4050074D105005BB00500B290050062CD
:101720007205005555050078390500B81E050005FD
:101730000505004EEC040087D40400A1BD04009010
:10174000A7040049920400C17D0400EE690400C7AB
:10175000560400444404005C3204000821040041A3
:10176000100400000004003FF00300F8E00300262E
:10177000D20300C3C30300CCB503003AA803000A98
:101780009B0300388E0300C08103009F750300D0C7
:10179000690300505E03001D5303003448030091A9
:1017A0003D03003333030016290300381F0300975D
:1017B000150300300C0300030303000BFA02004979
:1017C000F10200BAE802005CE002002DD802002D10
:1017D000D0020059C80200B0C0020031B90200DADC
:1017E000B10200AAAA0200A0A30200BC9C0200FA57
:1017F0009502005C8F0200DF8802008282020045B1
:101800007C02002776020027700200436A02007CF7
:10181000640200D05E02003F590200C8530200FF7C
:10182000FDFCFAF8F6F4F2F0EEECEAE9E7E5E3E1C4
:10183000E0DEDCDAD9D7D5D4D2D0CFCDCBCAC8C779
:10184000C5C3C2C0BFBDBCBAB9B7B6B4B3B2B0AFFE
:10185000ADACAAA9A8A6A5A4A2A1A09E9D9C9A9958
:10186000989795949392908F8E8D8B8A898887868E
:1018700084838281807F7E7D7B7A797877767574A8
:10188000737271706F6E6D6C6B6A696867666564A0
:10189000636261605F5E5D5C5B5A5958585756558C
:1018A0005453525150504F4E4D4C4B4A4A49484761
:1018B0004646454443424241403F3E3E3D3C3B3B21
:1018C0003A39383837363535343332323130302FD3
:1018D0002E2E2D2C2B2B2A29292827272625252477
:1018E000232322212120201F1E1E1D1C1C1B1B1A0E
:1018F0001919181817161615151413131212111199
:10190000100F0F0E0E0D0D0C0C0B0A0A090908081A
:10191000070706060505040403030202010000246C
:10192000F4D43050C38E20C2A24017828B701112A3
:101930007A910D816CD90AA861E108C758660761E0
:101940005143061E4B5D05C145A7041A4111040908
:101950003D9803713931034036DB0265339102D47F
:10196000305402802E1D02632CEE01752AC501B091
:1019700028A001102781018F2564012B244B01E051
:10198000223401AC211F018D200D01801FFC008439
:101990001EED00971DDF00B81CD200E61BC600201C
:1019A0001BBC00641AB200B219A8000A19A0006A90
:1019B000189900D117910040178B00B5168400319B
:1019C000167E00B31579003A157300C7146F0058DE
:1019D000146A00EE1366008813630025135E00C7C7
:1019E000125B006C12570015125400C111510070A7
:1019F000114F0021114B00D61049008D10470046B1
:101A000010440002104200C00F4000800F3E004210
:101A10000F3C00060F3B00CB0E3800930E37005CE6
:101A20000E3500270E3400F30D3200C10D31009049
:101A30000D3000600D2E00320D2D00050D2C00D94B
:101A40000C2B00AE0C2900850C29005C0C270035FE
:101A50000C27000E0C2600E80B2400C40B2400A069
:101A60000B23007D0B23005A0B2100390B2100189A
:101A70000B2000F80A1F00D90A1E00BB0A1E009D99
:101A80000A1D00800A1D00630A1C00470A1B002C67
:101A90000A1B00110A1A00F7091A00DD091900C40F
:101AA000091900AB091900920917007B0918006396
:101AB0000917004C09160036091600200916000AFD
:101AC000091500F5081500E0081400CC081400B84A
:101AD000081400A4081400900813007D0812006B7D
:101AE0000813005808120046081200340811002399
:101AF0000811001208110001081100F0071000E0A1
:101B0000071000D0071000C0071000B0070F00A199
:101B100007100091070E0083070F0074070F006580
:101B2000070E0057070E0049070E003B070D002E59
:101B3000070E0020070D0013070D0006070D00F922
:101B4000060C00ED060D00E0060C00D4060C00C8E3
:101B5000060C00BC060C00B0060C00A4060B009995
:101B6000060C008D060B0082060B0077060B006C3E
:101B7000060B0061060A0057060B004C060A0042DD
:101B8000060A0038060A002E060A0024060A001A71
:101B9000060A001006090007060A00FD050900F400
:101BA000050900EB050900E2050900D9050900D087
:101BB000050900C7050900BE050900B5050800AD07
:101BC000050800A50509009C050800940508008C7F
:101BD000050800840508007C050800740508006CF1
:101BE000050700650508005D050700560508004E5D
:101BF00005070047050700400508003805070031C4
:101C00000507002A050700230507001C0506001626
:101C10000507000F0507000805060002050700FB81
:101C2000040600F5040700EE040600E8040600E2DE
:101C3000040700DB040600D5040600CF040600C933
:101C4000040600C3040600BD040600B7040600B184
:101C5000040500AC040600A6040600A00405009BD1
:101C600004060095040500900406008A040500851A
:101C7000040500800406007A040500750405007060
:101C80000405006B04050066040500610405005CA2
:101C900004050057040500520405004D04050048E2
:101CA000040500430405003E0404003A0405003521
:101CB000040500300404002C04050027040400235C
:101CC0000405001E0404001A040400160405001193
:101CD0000404000D040400090405000404040000C9
:101CE000040400FC030400F8030400F4030400F0FF
:101CF000030400EC030400E8030400E4030400E030
:101D0000030400DC030400D8030400D4030400D05F
:101D1000030400CC030400C8030300C5030300242C
:101D2000F404D9201BC40C5C0E9804C4095F02653E
:101D3000077101F405F900FB04B30048048700C1F2
:101D40000369005803550003034500BE023A0084AE
:101D500002310053022A002902250004022000E477
:101D6000011C00C8011900AF01170098011400847C
:101D7000011300710110006101100051010E0043B8
:101D8000010D0036010B002B010B0020010B00158B
:101D90000109000C01090003010800FB000800F321
:101DA000000800EB000700E4000600DE000600D893
:101DB000000600D2000600CC000500C7000500C2E6
:101DC000000500BD000400B9000400B5000400B126
:101DD000000400AD000400A9000400A5000300A257
:101DE0000003009F0004009B00030098000300957F
:101DF00000020093000300900003008D0002008B9E
:101E000000030088000200860002008400030081B5
:101E10000002007F0002007D0002007B00020079CA
:101E200000020077000100760002007400020072D8
:101E3000000100710002006F0002006D0001006CE3
:101E40000002006A000100690002006700010066EC
:101E500000010065000100640002006200010061F1
:101E6000000100600001005F0002005D0001005CF5
:101E70000001005B0001005A0001005900010058F8
:101E800000010057000100560001005500010054F8
:101E900000010053000000530001005200010051F6
:101EA000000100500001004F0001004E0000004EF4
:101EB0000001004D0001004C0001004B0000004BF0
:101EC0000001004A000100490001004800000048EC
:101ED00000010047000100460000004600010045E7
:101EE00000000045000100440001004300000043E1
:101EF00000010042000000420001004100000041DA
:101F0000000100400001003F0000003F0001003ED2
:101F10000000003E0001003D0000003D0001003CCB
:101F20000000003C0000003C0001003B0000003BC2
:101F30000001003A0000003A0001003900000039B9
:101F400000010038000000380000003800010037B0
:101F500000000037000100360000003600000036A7
:101F6000000100350000003500000035000100349C
:101F70000000003400000034000100330000003392
:101F80000000003300010032000000320000003287
:101F9000000100310000003100000031000100307C
:101FA00000000030000000300001002F0000002F72
:101FB0000000002F0000002F0001002E0000002E66
:101FC0000000002E0001002D0000002D0000002D5B
:101FD0000000002D0001002C0000002C0000002C4F
:101FE0000000002C0001002B0000002B0000002B43
:101FF0000000002B0001002A0000002A0000002A37
:102000000000002A0001002900000029000000292A
:10201000000000290000002900010028000000281D
:102020000000002800000028000000280001002710
:102030000000002700000027000000270000002704
:1020400000010026000000260000002600000026F7
:1020500000000026000100250000002500000025EA
:1020600000000025000000250000002500010024DC
:1020700000000024000000240000002400000024D0
:1020800000010023000000230000002300000023C3
:1020900000000023000000230000002300010022B4
:1020A00000000022000000220000002200000022A8
:1020B000000000220001002100000021000000219A
:1020C000000000210000002100000021000000218C
:1020D000000100200000002000000020000000207F
:1020E0000000002000000020000000200000002070
:1020F0000001001F0000001F0000001F0000001F63
:102100000000001F0000001F0000001F0001001E53
:102110000000001E0000001E0000001E0000002342
:102120002C0000B8220000561800003A0F0000B83A
:10213000080000B1040000710200003E0100000030
:10214000626564002C2073797374656D2073746FFD
:102150007070656421204865617465725F49443A16
:10216000200048656174696E67204661696C65642A
:102170000048656174696E67206661696C6564001A
:1021800070012C0190012701B0012201C0011D0145
:10219000F00118011002130130020E016002090162
:1021A00090020401C002FF000003FA004003F500A2
:1021B0008003F000D003EB002004E6007004E1008F
:1021C000E004DC004005D700C005D2004006CD0089
:1021D000D006C8008007C3003008BE00F008B90070
:1021E000C009B400B00AAF00B00BAA00D00CA50023
:1021F000000EA000500F9B00C010960050129100DE
:1022000000148C00C0158700B0178200B0197D0043
:10221000D01B7800001E730040206E0090226900E1
:10222000F024640040275F0090295A00E02B5500FD
:10223000102E500020304B0010324600E033410099
:1022400090353C001037370070383200A0392D002F
:10225000B03A2800A03B2300603C1E00103D19004E
:10226000903D1400103E0F00703E0A00C03E050075
:10227000003F0000403FFBFF803FF6FFC03FF1FF03
:10228000544845524D414C2052554E4157415900FA
:10229000546865726D616C2052756E61776179006A
:1022A0004572723A204D415854454D50004D4158A9
:1022B00054454D50207472696767657265640045C6
:1022C00072723A204D494E54454D50004D494E547E
:1022D000454D5020747269676765726564004D38BA
:1022E0003420582059205A204500202F00204240F9
:1022F0003A0020403A0020573A0020573A00496EF1
:1023000076616C69642065787472756465720A0020
:102310007C3C3E5E2B3D3F2F5B5D3B2C2A225C00CC
:1023200043616E6E6F74206F70656E2073756264AA
:102330006972200053442063617264206F6B0A004D
:102340006F70656E526F6F74206661696C65640AA8
:1023500000766F6C756D652E696E697420666169B3
:102360006C65640A00534420696E69742066616973
:102370006C0A0046696C652073656C6563746564FE
:102380000A002053697A653A200046696C65206F1F
:1023900070656E65643A2000454E442053554252A4
:1023A0004F5554494E450A002220706F7300222079
:1023B000706172656E743A2200535542524F555403
:1023C000494E452043414C4C207461726765743A14
:1023D0002200747279696E6720746F2063616C6C7F
:1023E000207375622D67636F64652066696C657321
:1023F000207769746820746F6F206D616E79206C2E
:102400006576656C732E204D4158206C6576656C41
:102410002069733A310A0057726974696E672074D3
:102420006F2066696C653A20002E0A006F70656E39
:10243000206661696C65642C2046696C653A2000F1
:102440001000C90210012C01400122017001180185
:10245000B0010E01F00104015002FA00B002F000D8
:102460003003E600D003DC009004D2007005C80001
:10247000A006BE000008B400B009AA00D00BA0005E
:10248000600E960060118C00001582002019780003
:10249000C01D6E00A0226400B0275A00902C50008E
:1024A00000314600E0343C0010383200903A2800F9
:1024B000603C1E00A03D1400803E0A00203F00004A
:1024C000667265736800646F696E67002066696C88
:1024D000653A20004E6F772000000021002400277D
:1024E000002A002D00300033000101000004010724
:1024F000010A0100002200250028002B002E0031D7
:1025000000340002010000050108010B0100002059
:10251000002300260029002C002F003200000100BB
:10252000000301060109010505050507050808085E
:1025300008020202020A0A08080404040401010154
:10254000010101010103030303030303030407075C
:10255000070C0C0C0C0C0C0C0C02020202060606FA
:1025600006060606060B0B0B0B0B0B0B0B010210E2
:10257000202008081020401020408002010201089D
:10258000040201010204081020408080402010084D
:1025900004020180040201804020100804020108A6
:1025A0000402010102040810204080010204081006
:1025B00020408000000A0B02090C0D0E08070304DE
:1025C000010000000000000000000000000000000A
:1025D00000000000000000000000000000000012E9
:1025E00011100000000000000000000000000000CA
:1025F0000000000000000000000254465420536513
:102600007269616C2044656275673A2046696C6145
:102610006D656E742072756E6F75742E2E2E204A45
:1026200031350A004A3135004A3132004A3137002B
:102630002020506C616E6E657242756666657242EE
:10264000797465733A20002046726565204D656D8A
:102650006F72793A2000436F6D70696C65643A203F
:1026600041707220203520323032300A00204C6117
:10267000737420557064617465643A20323032306E
:102680002D30322D3237207C20417574686F723ABC
:102690002028646176696472616D69726F290A002D
:1026A00076322E302E310A004D61726C696E2D41EA
:1026B00049334D00322E302E342E340A004D6172D3
:1026C0006C696E0020536F66747761726520526585
:1026D0007365740A00205761746368646F672052E1
:1026E000657365740A002042726F776E206F75748F
:1026F0002052657365740A002045787465726E61B6
:102700006C2052657365740A00506F77657255705E
:102710000A0073746172740A004D3234004D323312
:10272000202573006175746F25632E67004732386A
:10273000585900446F6E65207072696E74696E67D7
:102740002066696C650A004D3331004D30513153BC
:102750003630006572726F722077726974696E67C5
:1027600020746F2066696C650A00446F6E65207383
:102770006176696E672066696C652E0A004D323994
:1027800000205A3A0020593A0020583A00656E64F9
:1027900073746F7073206869743A2000220A0055C0
:1027A0006E6B6E6F776E20636F6D6D616E643A2035
:1027B000220044454255473A204A32332053686F3D
:1027C000772066696C616D656E742070726F6D70D4
:1027D000740A004A3233002044454255473A2041AA
:1027E00049334D2050617573652053746174653AA7
:1027F000200044454255473A204D32352073656EDE
:10280000742C207061726B696E67206E6F7A7A6CBF
:10281000650A004D32350044454255473A20466925
:102820006C616D656E742072756E6F7574202D20ED
:10283000526574726163742C206265657020616EEC
:1028400064207061726B2E0A0047393000473120D6
:10285000452D33204631383030004739310044456A
:102860004255473A2046696C616D656E7420527519
:102870006E6F75742050617573650A00444542554A
:10288000473A20526567756C6172205061757365B7
:102890000A002044454255473A204149334D2050D3
:1028A000617573652053746174653A200043616EED
:1028B0006E6F7420656E74657220737562646972E0
:1028C0003A200044454255473A204D36303020509A
:1028D000617573652063616C6C65640A004D363008
:1028E00030002044454255473A204149334D20505D
:1028F000617573652053746174653A200053706587
:102900006369616C204D656E753A2046696C616D36
:10291000656E744368616E676520526573756D6599
:102920000A005370656369616C204D656E753A20CD
:1029300046696C616D656E744368616E67652050B1
:10294000617573650A004739310A4731205A2D30C5
:102950002E310A473930005370656369616C204D30
:10296000656E753A205A20446F776E20302E310AFA
:10297000004739310A4731205A2D302E30320A476C
:102980003930005370656369616C204D656E753A2E
:10299000205A20446F776E20302E30320A0047399B
:1029A000310A4731205A2B302E30320A4739300055
:1029B0005370656369616C204D656E753A205A20CD
:1029C000557020302E30320A004739310A47312005
:1029D0005A2B302E310A47393000537065636961D4
:1029E0006C204D656E753A205A20557020302E317E
:1029F0000A00473239205332005370656369616CB5
:102A0000204D656E753A204E657874204D6573686B
:102A100020506F696E740A004732392053310053D9
:102A200070656369616C204D656E753A2053746101
:102A30007274204D657368204C6576656C696E67AD
:102A40000A004D31343020533630005370656369CD
:102A5000616C204D656E753A2050726568656174D1
:102A6000204265640A004D35303200537065636959
:102A7000616C204D656E753A204C6F61642046573D
:102A80002044656661756C74730A004D3530300002
:102A90005370656369616C204D656E753A205361B2
:102AA000766520454550524F4D0A004D3330332056
:102AB000452D312053363020433620553100537098
:102AC000656369616C204D656E753A204175746F60
:102AD0002054756E6520486F746265642050696487
:102AE0000A004D31303620533230340A4D33303302
:102AF00020453020533231302043313520553100CC
:102B00005370656369616C204D656E753A2041753F
:102B1000746F2054756E6520486F74656E64205024
:102B200049440A002044454255473A204E544F201C
:102B3000646F6E652C204149334D2050617573657B
:102B40002053746174653A200044454255473A2049
:102B5000436C65617220666C6167730A004445428C
:102B600055473A20526573756D65206865617469D3
:102B70006E670A004D3130380044454255473A20CF
:102B800053656E6420726568656174204D3130381C
:102B90000A003C5370656369616C5F4D656E753EFC
:102BA000003C5370656369616C5F4D656E753E00F6
:102BB0002F002F002F002F2E2E0A002F2E2E002F39
:102BC0002E2E003C5370656369616C5F4D656E75B8
:102BD0003E0A003C5370656369616C204D656E75FB
:102BE0003E003C5370656369616C204D656E753EB7
:102BF000003C46696C616D656E744368616E676523
:102C000020526573756D653E003C46696C616D656B
:102C10006E744368616E676520526573756D653EBD
:102C2000003C46696C616D656E744368616E6765F2
:102C30002050617573653E003C46696C616D656E40
:102C4000744368616E67652050617573653E003C32
:102C50004C6F61642046572044656661756C7473DF
:102C60003E003C4C6F6164204657204465666175A8
:102C70006C74733E003C4175746F2054756E652012
:102C8000486F74626564205049443E003C4175744D
:102C90006F2054756E6520486F74626564205049DA
:102CA000443E003C4175746F2054756E6520486F3A
:102CB00074656E64205049443E003C4175746F2039
:102CC00054756E6520486F74656E64205049443EAB
:102CD000003C457869743E003C457869743E003C90
:102CE0005361766520454550524F4D3E003C53613F
:102CF000766520454550524F4D3E003C4E657874F8
:102D0000204D65736820506F696E743E003C4E65BF
:102D10007874204D65736820506F696E743E003C76
:102D20005374617274204D657368204C6576656CD0
:102D3000696E673E003C5374617274204D65736820
:102D4000204C6576656C696E673E003C5072656824
:102D5000656174206265643E003C5072656865611F
:102D600074206265643E003C5A20446F776E2030C8
:102D70002E313E003C5A20446F776E20302E313E7B
:102D8000003C5A20446F776E20302E30323E003C9B
:102D90005A20446F776E20302E30323E003C5A204D
:102DA000557020302E30323E003C5A205570203075
:102DB0002E30323E003C5A20557020302E313E00DD
:102DC0003C5A20557020302E313E005631313600AD
:102DD0004A333320004D3530300A4D3432302053E1
:102DE000310A4731205A313020463234300A4731D7
:102DF0002058302059302046363030300054465468
:102E0000204C6576656C20736176696E672064611D
:102E100074612E2E2E0A0054465420536572696147
:102E20006C2044656275673A204C6576656C696E06
:102E300067207072696E742074657374207769748A
:102E4000682068656174696E6720646F6E652E2EF8
:102E50002E204A32320A004A323200544654204C64
:102E60006576656C20636865636B2068656174696D
:102E70006E672E2E2E0A00544654205365726961E7
:102E80006C2044656275673A204C6576656C696EA6
:102E900067207072696E74207465737420646F6E3D
:102EA000652E2E2E204A32320A004A323200544613
:102EB00054204C6576656C20636865636B206E6F8B
:102EC0002068656174696E672E2E2E0A00473120D6
:102ED0005A3520463234300A4731205831393020B3
:102EE0005932302046363030300A4731205A3020AF
:102EF0004632343000544654204C6576656C20636D
:102F00006865636B706F696E74206261636B2072B9
:102F1000696768742E2E2E0A004731205A352046E4
:102F20003234300A47312058313930205931393064
:102F30002046363030300A4731205A30204632346D
:102F40003000544654204C6576656C206368656398
:102F50006B706F696E74206261636B207269676861
:102F6000742E2E2E0A004731205A35204632343036
:102F70000A47312058313930205932302046363016
:102F800030300A4731205A3020463234300054461F
:102F900054204C6576656C20636865636B706F695F
:102FA0006E742066726F6E742072696768742E2E5C
:102FB0002E0A004739310A4731205A313020463233
:102FC00034300A4739300A4732380A4732390A471B
:102FD0003120583230205932302046363030300AD5
:102FE0004731205A30204632343000544654204C69
:102FF0006576656C696E67207374617274656420B0
:10300000616E64206D6F76696E7420746F206672D5
:103010006F6E74206C6566742E2E2E0A0054465412
:1030200020456E746572696E67206C6576656C20EC
:103030006D656E75652E2E2E0A005446542053651C
:103040007269616C2044656275673A20534420635D
:1030500061726420696E697469616C697A65642E55
:103060002E2E204A30320A004A3032005446542074
:1030700053657269616C2044656275673A20436FDD
:103080006F6C696E6720646F776E2E2E2E204A312A
:10309000320A004A3132004731205A3130004F4B5A
:1030A000004731205A313000473930004731204540
:1030B00025694635303000473120452D302E3146C8
:1030C00025690047312045302E31462569004731BA
:1030D000205A2569462569004731205A2D302E3166
:1030E000462569004731205A302E31462569004770
:1030F000312059256946256900473120592D302E48
:10310000314625690047312059302E314625690066
:1031100047312058256946256900473120582D3010
:103120002E314625690047312058302E3146256919
:10313000004739310047323800473238205A0047BB
:10314000323820590047323820580041323056205A
:10315000004731205A31300054465420536572697B
:10316000616C2044656275673A20537461727469BA
:103170006E67205344205072696E742E2E2E204AA2
:1031800030340A004A3034002044454255473A2042
:103190004149334D205061757365205374617465E6
:1031A0003A20005446542053657269616C2044658E
:1031B0006275673A2046696C65206F70656E20669F
:1031C00061696C65642E2E2E204A32310A004A3223
:1031D00031005446542053657269616C2044656225
:1031E00075673A2046696C65206F70656E2073754F
:1031F000636365737366756C2E2E2E204A32300A17
:10320000004A3230002044454255473A2041493374
:103210004D2050617573652053746174653A2000C8
:103220004A3136005446542053657269616C20441B
:10323000656275673A205344207072696E7420731A
:103240007461727465642E2E2E204A30340A004A4E
:103250003034002044454255473A204149334D20FF
:1032600050617573652053746174653A2000454E52
:103270004400464E20004A3032003939393A393953
:1032800039004D0048004137562000413656202D68
:103290002D2D004A30320041365620005A3A200087
:1032A000593A2000583A2000413556004134562002
:1032B0000041335620004132562000413156200053
:1032C00041305620005446542053657269616C2089
:1032D000436F6D6D616E643A20002044454255474E
:1032E0003A204149334D2050617573652053746114
:1032F00074653A20004D3237004D38340044454261
:1033000055473A20534453544F503A205061726B02
:103310002058590A0044454255473A2053445354D3
:103320004F503A205061726B205A0A004739310AD7
:10333000473120452D312046313830300A47393069
:10334000002044454255473A204149334D205061C1
:103350007573652053746174653A20005446542097
:1033600053657269616C2044656275673A20534405
:10337000207072696E742073746F707065642E2E85
:103380002E204A31360A004A313600544654205322
:10339000657269616C2044656275673A2053442008
:1033A0007072696E742070617573656420646F6EED
:1033B000652E2E2E204A31380A004D313235204CF0
:1033C000320044454255473A20526567756C617238
:1033D00020506175736520726571756573746564DD
:1033E0000A002044454255473A204149334D205078
:1033F000617573652053746174653A20004A3138F1
:10340000002044454255473A204149334D20506100
:103410007573652053746174653A200054465420D6
:1034200053657269616C2044656275673A20534444
:10343000207072696E7420646F6E652E2E2E204A85
:1034400031340A004A3134005446542053657269BD
:10345000616C2044656275673A2053442063617251
:103460006420696E7365727465642E2E2E204A3056
:10347000300A004A30300054465420536572696166
:103480006C2044656275673A20534420636172641E
:103490002072656D6F7665642E2E2E204A30310ABB
:1034A000004A3031005446542053657269616C20E3
:1034B00044656275673A20486F74656E6420746570
:1034C0006D70657261747572652061626E6F726D88
:1034D000616C2E2E2E204A32300A004A31300044D0
:1034E000454255473A204D31303820526573756D4D
:1034F0006520646F6E650A0044454255473A204D89
:1035000031303820526573756D652063616C6C6570
:10351000640A004D3130380044454255473A204E48
:103520006F7A7A6C652074696D656F757420666C4E
:10353000616720636C65617265640A0044454255A9
:10354000473A205365742050617573652061676147
:10355000696E2062656361757365206F66207469AA
:103560006D656F75740A0044454255473A204E6FA9
:103570007A7A6C652074696D656F757420666C610C
:103580006720636C65617265640A00444542554773
:103590003A205365742050617573652061676169D5
:1035A0006E2062656361757365206F662074696D56
:1035B000656F75740A0044454255473A2046696C68
:1035C000616D656E7420506175736520466C61672E
:1035D00020636C65617265640A0044454255473A50
:1035E000204D323420526573756D652066726F6DA3
:1035F0002046696C616D656E742052756E6F7574CE
:103600000A004D32340044454255473A2046696C21
:10361000616D656E74204368616E676520466C61FC
:103620006720636C65617265640A004445425547D2
:103630003A205374617274204D31303820726F75A6
:1036400074696E650A002044454255473A20414955
:10365000334D2050617573652053746174653A2051
:10366000002044454255473A204149334D2050619E
:103670007573652053746174653A20004445425562
:10368000473A204D323420526573756D652066725D
:103690006F6D20726567756C6172207061757365FE
:1036A0000A002044454255473A204149334D2050B5
:1036B000617573652053746174653A20004D32342E
:1036C0000044454255473A20526567756C61722047
:1036D00053746172740A002044454255473A2041B0
:1036E00049334D2050617573652053746174653A98
:1036F000200020746F6F206C6F6E67206578747285
:103700007573696F6E2070726576656E7465640A94
:103710000020636F6C6420657874727573696F6ED6
:103720002070726576656E7465640A00486F6D6519
:103730002025732573257320466972737400204415
:10374000454255473A204149334D205061757365D4
:103750002053746174653A200044454255473A202D
:1037600053746F7070656420616E6420636C656172
:103770007265640A00204500205A00205900204D3F
:1037800039322058002E0A006F70656E206661691C
:103790006C65642C2046696C653A200054465420C0
:1037A00053657269616C2044656275673A204B69A4
:1037B0006C6C20636F6D6D616E642E2E2E204A310D
:1037C000310A004A3131005072696E7465722068A6
:1037D000616C7465642E206B696C6C2829206361B0
:1037E0006C6C6564210A000062DD2AE611241FBEAC
:1037F000CFEFD1E2DEBFCDBF00E00CBF14E0A0E010
:10380000B2E0EAEAF5EE01E00BBF02C007900D92CC
:10381000A833B107D9F72BE1A8E3B4E001C01D92AA
:10382000AE37B207E1F71BE1C5EFDBE100E006C010
:1038300021970109802FFE010E9431F2C43FD10778
:1038400080E00807A9F70E9407DF0C94C4F20C94EB
:1038500000008091FB159091FC158635910554F47C
:1038600081E020911C0C30911D0C263031051CF498
:1038700080E0089581E00895CF93DF93CFE3D1E214
:1038800020E030E048E452E46091F7157091F815BB
:103890008091F9159091FA150E945BF187FF17C08E
:1038A00080E0FE01C49120910B0190E0B0E0A0E027
:1038B00004C0B695A79597958795CA95D2F780FDD0
:1038C0000EC0207220930901DF91CF910895FE016F
:1038D000949181E001C0880F9A95EAF7E2CF209594
:1038E000F0CFEF92FF920F931F93E0924504F09276
:1038F000460400934704109348046093490470936E
:103900004A0480934B049FEFFF27621B730B840BC9
:1039100030F4809570956195790B890B9927909378
:103920004404A6E06A9F00923804512DEE277A9F46
:10393000500DE11D8A9FE00D50933904E0933A0445
:10394000AFE06A9F00923C04512DEE277A9F500D04
:10395000E11D8A9FE00D50933D04E0933E04AAE0F0
:103960006A9F00924004512DEE277A9F500DE11D71
:103970008A9FE00D50934104E09342041F910F9100
:10398000FF90EF9008959F92AF92BF92CF92DF92F7
:10399000EF92FF920F931F93CF93DF9300D01F926C
:1039A0001F92CDB7DEB7EFE1F8E10027BB27462F26
:1039B000572FA82FAA2341F4A52F542FB85FAA236D
:1039C00019F4A52F5527B85FA03138F45295A29568
:1039D000452F4F70507FA42BBC5FA03428F4550FA7
:1039E000AA1F550FAA1FBE5FA03818F4550FAA1FB3
:1039F000B395550FAA1FEA0FF01F449151E0AA2773
:103A0000B85079F1C0F0B0FF02C0440F551FB1FFAC
:103A100004C0440F551F440F551FB2FF06C05295F6
:103A20004295142F1F70407F512BB3FF1AC0A52F52
:103A3000542F442716C0B195B0FF02C05595479545
:103A4000B1FF04C05595479555954795B2FF05C000
:103A50005295407F4295452B5F70B3FF02C0452FC2
:103A60005527DD24CC24BB24B2E0649FD018C108C4
:103A7000B00AB00B749FC018B108B00B849FB01887
:103A8000B109659FC018B108B00B759FB018B10996
:103A9000859FB0196A9FB018B1097A9FB0194D9DE2
:103AA000A12C99243327992722275D9DA00C911CD6
:103AB000301F901F201FAD9D900C311D901F201FA7
:103AC0004C9DA00C911C301F901F201F5C9D900CE2
:103AD000311D901F201FAC9D300D911D201F4B9D4F
:103AE000900C311D901F201F5B9D300D911D201FDC
:103AF000AB9D900D211D4B9F300D911D201F5B9F95
:103B0000900D211DAB9F200DB1E0BB24CC24DD2402
:103B1000639FD018C108B00AB00B739FC018B108DA
:103B2000B00B839FB018B109699FC018B108B00BE2
:103B3000799FB018B109899FB019629FB018B10977
:103B4000729FB019D61AC70AB80A20F0B1E03B0F2D
:103B5000901F201F1124792F632F90E0822F0F9048
:103B60000F900F900F900F90DF91CF911F910F91B9
:103B7000FF90EF90DF90CF90BF90AF909F9008950F
:103B8000CF92DF92EF92FF9280914906882309F449
:103B900057C0C0904E06D0904F06E0905006F0906F
:103BA000510620E030E0A901C701B6010E94FDEAFC
:103BB000882309F445C020E030E040E05FE3C7011E
:103BC000B6010E9462EB9B01AC010E9462EB2BEDFF
:103BD0003FE049E450E40E9462EB9B01AC0160E0ED
:103BE00070E080E89FE30E9411F06B017C01C092BD
:103BF0004A06D0924B06E0924C06F0924D06609138
:103C0000340270913502072E000C880B990B0E942C
:103C100003EB2AE037ED43E25CE30E9462EBA7018D
:103C200096010E9462EB6093700270937102809320
:103C3000720290937302FF90EF90DF90CF900895FF
:103C4000C12CD12C80E8E82E8FE3F82ED0CF8091C4
:103C5000661690916716891B8F7019F490E080E0CA
:103C6000089590916316992351F0833030F48FEFCB
:103C7000890F19F080936316F1CF1092631680912B
:103C8000671622E6829FC00111248759934FFC01D9
:103C9000208120FDE3CF209167162F5F2F702093A6
:103CA00064163091671620916516321304C0209176
:103CB00064162093651608952F923F924F925F925B
:103CC0006F927F928F929F92AF92BF92CF92DF922C
:103CD000EF92FF920F931F93CF93DF93CDB7DEB791
:103CE00064970FB6F894DEBF0FBECDBF7A8B698B99
:103CF000DC018D909D90AD90BC90139714962D9102
:103D00003D914D915C9117972D833E834F8358874A
:103D100020E030E040E251E4C501B4010E9434EFFC
:103D200021E83AE048EA5CE30E9462EB0E9479F005
:103D300064300CF427C163E0E62E660FFF08F7013C
:103D4000EE0FFF1FEE0FFF1FE753F64E408051802E
:103D5000628073801701BFEF2B1A3B0A20E030E02E
:103D600040E251E46D817E818F8198850E9434EF1D
:103D700021E83AE048EA5CE30E9462EB0E9479F0B5
:103D800064300CF403C163E0062F660F110BF801D9
:103D9000EE0FFF1FEE0FFF1FE753F64E208131811C
:103DA0004281538129833A834B835C83A8014F5F0F
:103DB0005F4F5C8B4B8BA5E0AE9DC001AF9D900D1E
:103DC00011249A878987FC01E00FF11FEE0FFF1F76
:103DD000EE0FFF1FEB51FA4FC080D180E280F380DD
:103DE000F101EE0FFF1FEE0FFF1FE753F64EA30189
:103DF000920160817181828193810E9434EF6B878F
:103E00007C878D879E87A3019201C501B4010E9422
:103E100034EF2B013C0125E0229DF001239DF00DA4
:103E20001124F88BEF87E00FF11FEE0FFF1FEE0F4D
:103E3000FF1FEB51FA4FA7019601608171818281CA
:103E400093810E9434EF2B853C854D855E850E94D1
:103E500011F0A30192010E9462EBA70196010E945A
:103E600035EF6B017C01E985FA854B895C89E40FAC
:103E7000F51FEE0FFF1FEE0FFF1FEB51FA4F808073
:103E80009180A280B380EF85F889E40FF51FEE0FD3
:103E9000FF1FEE0FFF1FEB51FA4FA5019401608148
:103EA0007181828193810E9434EF2B853C854D8501
:103EB0005E850E9411F0A30192010E9462EBA501B0
:103EC00094010E9435EFA70196010E9434EF4B0147
:103ED0005C01EB89FC89EE0FFF1FEE0FFF1FE7531C
:103EE000F64E29813A814B815C81608171818281AA
:103EF00093810E9434EF9B01AC01C501B4010E9483
:103F000011F04B015C0129813A814B815C816D810B
:103F10007E818F8198850E9434EF9B01AC01C501A1
:103F2000B4010E9462EBA70196010E9435EFA989B6
:103F3000BA892D913D914D915C910E9462EB209147
:103F4000E1053091E2054091E3055091E4050E94BE
:103F500035EF64960FB6F894DEBF0FBECDBFDF918C
:103F6000CF911F910F91FF90EF90DF90CF90BF9076
:103F7000AF909F908F907F906F905F904F903F9009
:103F80002F90089567FFD8CE60E0D6CE67FFFCCEB5
:103F900060E0FACE90916F0081E091FD02C080E078
:103FA000089590916F009D7F90936F0008958F9278
:103FB0009F92AF92BF92CF92DF92EF92FF92CF93F8
:103FC000DF93EC018090340C9090350CA090360C6F
:103FD000B090370C20E030E0A901C501B4010E9487
:103FE000FDEA882309F454C0C880D980EA80FB80A8
:103FF000A7019601C501B4010E94FDEA18160CF054
:104000004CC020912B0C30912C0C40912D0C5091D8
:104010002E0CC701B6010E94FDEA882331F1C0923F
:104020002B0CD0922C0CE0922D0CF0922E0C2091A7
:104030002F0C3091300C4091310C5091320C688132
:1040400079818A819B810E9462EB9B01AC0160E0D7
:1040500070E080E89FE30E9434EF60933002709339
:10406000310280933202909333026091300270915A
:1040700031028091320290913302DF91CF91FF9013
:10408000EF90DF90CF90BF90AF909F908F9008956A
:1040900060E070E080E89FE3F0CF60E070E0CB018B
:1040A000ECCF0F931F93CF93DF9300D01F92CDB728
:1040B000DEB78C0108967BDF69837A838B839C83D0
:1040C000BE016F5F7F4FC801F7DD9B01AC01F801B6
:1040D00060857185828593850E9434EFF801608741
:1040E0007187828793870F900F900F900F90DF91C9
:1040F000CF911F910F910895CF93DF9324E0829F7A
:10410000C0011124EC01C753DA4FFC01E754F84F0A
:104110008B529A4FDC012D913D914D915C916081C4
:104120007181828193810E9435EF688379838A83CC
:104130009B83DF91CF910895CF92DF92EF92FF9210
:104140001F93CF93DF9320912B02222309F48DC07C
:10415000EC0110918C1210FF2CC0C0901302D09073
:104160001402E0901502F0901602288139814A81EC
:104170005B81C701B6010E945BF1181624F4C88266
:10418000D982EA82FB82C0901F02D0902002E09088
:104190002102F0902202288139814A815B81C70186
:1041A000B6010E94FDEA87FF04C0C882D982EA8274
:1041B000FB8211FF2CC0C0901702D0901802E09033
:1041C0001902F0901A022C813D814E815F81C70156
:1041D000B6010E945BF1181624F4CC82DD82EE82D7
:1041E000FF82C0902302D0902402E0902502F0903C
:1041F00026022C813D814E815F81C701B6010E945C
:10420000FDEA87FF04C0CC82DD82EE82FF8212FFCE
:104210002CC0C0901B02D0901C02E0901D02F090B8
:104220001E02288539854A855B85C701B6010E9433
:104230005BF1181624F4C886D986EA86FB86C090FE
:104240002702D0902802E0902902F0902A022885C7
:1042500039854A855B85C701B6010E94FDEA87FF63
:1042600004C0C886D986EA86FB86DF91CF911F916C
:10427000FF90EF90DF90CF900895CF93DF93FC01F4
:1042800026853785D901A058BF4F8D919C911197F4
:1042900001968F779927E901CE57DF4F48815981E1
:1042A00048175907D9F34D915C91240F351FD90157
:1042B0006C93A685B785A058BF4F11969C938E939B
:1042C000C689D7892881378D81E090E0A0E0B0E0F1
:1042D00004C0880F991FAA1FBB1F3A95D2F7822BE3
:1042E000888381E081A30488F589E02D8081806442
:1042F000808381E090E0DF91CF910895FC0191A14E
:10430000992329F0A489B5898C9186FFF9CF11A250
:104310000895DC011C968D919C91FC01E058FF4FA3
:10432000408151813296208131814217530781F0BB
:1043300020813181820F931FDC018C91208131819A
:104340002F5F3F4F2F7733273183208390E00895ED
:104350008FEF9FEF0895FC0184859585FC01E0585F
:10436000FF4F40815181329620813181421753079E
:1043700041F020813181820F931FFC01808190E008
:1043800008958FEF9FEF0895FC0124853585F9018D
:10439000E058FF4F808191812E573F4FF9012081D6
:1043A000318180589F4F821B930B60E870E00C9422
:1043B0001EF290E080E00895CF93DF93FB01D901D6
:1043C00090819130E9F09430A8F0945090832D9131
:1043D0003C911197B9016F5F7F4F11967C936E935B
:1043E000420F531FEA0188838D919C918F3791056D
:1043F00064F406C08C3539F49C5F9083943039F7AF
:10440000DF91CF9108958B3311F781E08083F8CF4E
:1044100090918F12E92FF0E0E455F64E80839F5F74
:10442000983040F490938F12809190128F5F809318
:104430009012089510928F12F7CF282F9091610556
:10444000833021F495FD0FC094FD0FC0892F90E0BB
:10445000B0E0A0E004C0B695A795979587952A95FA
:10446000D2F78170089581E0089580E00895CF9299
:10447000DF92EF92FF92CF93DF93EC016A017B0111
:1044800027E137EB41ED58EBCB01B6010E945BF120
:1044900087FD23C027E030E047E553E4C701B601BC
:1044A0000E94FDEA1816CCF0C880D980EA80FB8013
:1044B00022ED30E040EA50ECC701B6010E945BF10A
:1044C00087FD0BC0C1E027E030E047E553E4C701BA
:1044D000B6010E94FDEA18160CF4C0E08C2FDF91A3
:1044E000CF91FF90EF90DF90CF9008952FEB280FA2
:1044F0002A3108F042C0E22FF0E080917D059091D2
:104500007E05A0917F05B091800504C0B695A79562
:10451000979587952A95D2F780FD02C081700895FE
:10452000ED59FA4FE081EE2329F18091E20B909151
:10453000E30BE80FF92FF11D808190ED980F9A3071
:1045400030F08E3251F4818180538A3098F4F093A8
:104550005105E093500581E008958D3211F08B32C2
:1045600049F4818190ED980F9A3088F38E3211F4DE
:104570008281EACFF0E0E0E0EACF80E00895EF92B8
:10458000FF920F931F93CF93DF9305EE15E0C5E0E5
:104590007801D5E0F70161917191819191917F014D
:1045A00020E030E0A9010E94FDEA81110EC0D15047
:1045B00089F7C1500C5E1F4FC111EACFDF91CF9137
:1045C0001F910F91FF90EF90089581E0F7CF8EBD7E
:1045D0000DB407FEFDCF0895909164009B7F9093EA
:1045E0006400982F906A96959CBD80FD03C091E071
:1045F000863009F490E09DBD089580915E0681307B
:1046000079F482E080935E060E9421CA60935A0684
:1046100070935B0680935C0690935D0681E008953D
:1046200080E0089561E0FC0180810E941CC88FEF4A
:10463000CECF2F923F924F925F926F927F928F9246
:104640009F92AF92BF92CF92DF92EF92FF920F9321
:104650001F93CF93DF9300D000D0CDB7DEB70E9479
:1046600021CA00918C1610918D1620918E163091D2
:104670008F16011511052105310509F00CC3209194
:104680009216222309F44AC0E091901621502093FB
:10469000921621E02E0F209390163091931623133B
:1046A00002C01092901624E0E29FF0011124EC5613
:1046B000F94E008111812281338100938816109375
:1046C000891620938A1630938B16600F711F811DF7
:1046D000911D60938C1670938D1680938E16909317
:1046E0008F1680918A1690918B16892BB9F08FB70F
:1046F0008E83F89420908816309089162101712CB1
:10470000612C00918A1610918B16809153028F3183
:10471000F1F08F3F09F496C09E819FBF26960FB699
:10472000F894DEBF0FBECDBFDF91CF911F910F91E7
:10473000FF90EF90DF90CF90BF90AF909F908F90C1
:104740007F906F905F904F903F902F900895E9EF8A
:10475000F5E294919D8397FDDFCF61E08FE10E94A8
:10476000E8C88D81882321F09D81923009F0BDC178
:104770004801B12CA12C60E072E18AE790E0A5012C
:1047800098010E94F9EE29833A834B835C83690187
:104790007A0121E0C21AD108E108F1088FEFC816AA
:1047A000D104E104F10409F00CF46FC160E472E497
:1047B0008FE090E0A50198010E94F9EE69017A016D
:1047C00091E0C91AD108E108F1082D81223009F0E1
:1047D00010C18FEFC816D104E104F10409F00CF404
:1047E000C0C260E970ED83E090E0A50198010E94ED
:1047F000F9EE69017A0191E0C91AD108E108F108DE
:1048000083E02FEFC216D104E104F10409F00CF4A7
:10481000A1C268E478EE81E090E0A50198010E94D1
:10482000F9EE69017A0181E0C81AD108E108F108BE
:104830009FEFC916D104E104F10411F00CF0FDC0A2
:1048400084E088C28FE180935302E9EFF5E224917E
:104850002D83822F2F3F09F45FCF223009F469C0E6
:1048600060F4222381F1213009F445C087FD54CF43
:1048700061E08FE10E94E8C877CF9D81943009F410
:104880009AC008F478C0953089F7109220011092F0
:104890002101809121018860809321018091210173
:1048A000816080932101E6E4F5E2E491F0E0EE0F0F
:1048B000FF1FED50FB4D85919491ECE8F5E2E491FA
:1048C000E09386054ACF14BC15BC84B5826084BDD4
:1048D00085B5816085BDE6E4F5E2E491F0E0EE0F98
:1048E000FF1FED50FB4D85919491ECE8F5E2E491CA
:1048F000E0938A0532CF109280001092810080915F
:104900008100886080938100809181008160809324
:104910008100E6E4F5E2E491F0E0EE0FFF1FED50D8
:10492000FB4D85919491ECE8F5E2E491E0938905E3
:1049300014CF1092B0001092B1008091B00082604C
:104940008093B0008091B10081608093B100E6E473
:10495000F5E2E491F0E0EE0FFF1FED50FB4D859185
:10496000949190939B0780939A07ECE8F5E2E49189
:10497000E0939C07F2CE10929000109291008091EB
:104980009100886080939100809191008160809374
:104990009100E6E4F5E2E491F0E0EE0FFF1FED5048
:1049A000FB4D85919491ECE8F5E2E491E093880564
:1049B00023E02D83D2CE1092A0001092A10080910E
:1049C000A10088608093A1008091A1008160809304
:1049D000A100E6E4F5E2E491F0E0EE0FFF1FED50F8
:1049E000FB4D85919491ECE8F5E2E491E093870525
:1049F000B4CE8FEFC816D104E104F10409F00CF431
:104A000072C068E478EE81E090E0A50198010E9410
:104A1000F9EE69017A0191E0C91AD108E108F108BB
:104A20002D81222309F462C12FEFC216D104E104C3
:104A3000F10411F00CF063C103CF64E274EF80E085
:104A400090E0A50194010E94F9EE69017A0181E0EC
:104A5000C81AD108E108F10885E09FEFC916D10412
:104A6000E104F10409F008F475C162E17AE780E03D
:104A700090E0A50194010E94F9EE69017A0181E0BC
:104A8000C81AD108E108F1084CC181E02D8121113B
:104A900061C195B5987F892B85BD2FEF3FEFA901A7
:104AA00045284628472809F048C09D81923009F4DE
:104AB000E2C00CF0C9C0992309F4CEC0913009F0CE
:104AC0002BCED0928900C092880020939705309316
:104AD00098054093990550939A0580916F008260E4
:104AE00080936F0019CE82E0D1CFB12CA12C60E071
:104AF00072E18AE790E0A50198010E94F9EE690150
:104B00007A0181E0C81AD108E108F108C114D10482
:104B100091E0E906F104F4F491E02D81213059F59A
:104B200080918100887F892B809381002FEF3FEF58
:104B3000A90145284628472821F29801220F331F52
:104B4000D1010E9425EF28EE33E040E050E00E94C2
:104B5000D7EEABCF68E478EE81E090E0A501980154
:104B60000E94F9EE69017A0181E0C81AD108E108D2
:104B7000F10893E0D2CF8D818330F9F480919100D8
:104B8000887F892B809391002FEF3FEFA901452863
:104B90004628472891F6D0929900C0929800209319
:104BA0009305309394054093950550939605809115
:104BB0007100826080937100AFCD2D81243001F5AA
:104BC0008091A100887F892B8093A1002FEF3FEF78
:104BD000A90145284628472809F0AFCFD092A9005F
:104BE000C092A80020938F053093900540939105C3
:104BF00050939205809172008260809372008CCDF8
:104C00008D81853009F049CF80912101887F892BE2
:104C1000809321012FEF3FEFA9014528462847281F
:104C200009F08BCFD0922901C092280120938B05E7
:104C300030938C0540938D0550938E0580917300C1
:104C400082608093730068CD8D81843039F20CF4DA
:104C5000A2CF853039F360CDC7BC20939B0530933C
:104C60009C0540939D0550939E0580916E00826047
:104C700080936E0051CDC092B30020939D07309376
:104C80009E0740939F075093A00780917000826019
:104C90008093700041CD601B710B820B930B97FDCD
:104CA0003DCD469810928C1610928D1610928E164D
:104CB00010928F1633CDC980DA80EB80FC809AE0A9
:104CC000F594E794D794C7949A95D1F721E0C21A46
:104CD000D108E108F10885E0DCCE8FEFC816D104D9
:104CE000E104F10409F038F784E0D3CE83E09FEFCC
:104CF000C916D104E104F10409F00CF4CACE62E152
:104D00007AE780E090E0A50194010E94F9EE690144
:104D10007A0181E0C81AD108E108F1089D81992340
:104D2000E1F286E02FEFC216D104E104F10491F024
:104D300088F0C980DA80EB80FC808AE0F594E79403
:104D4000D794C7948A95D1F791E0C91AD108E108A0
:104D5000F10887E09091B100987F892B8093B10092
:104D60009CCE82E0F7CFAF92BF92CF92DF92EF92CC
:104D7000FF920F931F93CF93DF93CDE9D4E10CE320
:104D80001CE08DEAA82E84E1B82EC12CD12C76012E
:104D9000C39469917991899199910E9401EB288935
:104DA00039894A895B890E9462EB0E947EF0F80192
:104DB00061937193819391938F01C616D706E8068C
:104DC000F90610F46B017C01AC16BD0611F76FEF0C
:104DD0007FEFCB01A70196010E94D7EE20934C0CE8
:104DE00030934D0C40934E0C50934F0C23EF34E016
:104DF00045E35FE36091380C7091390C80913A0C77
:104E000090913B0C0E9462EB6B017C016091A914B4
:104E10007091AA148091AB149091AC140E9401EB94
:104E20009B01AC01C701B6010E9462EB29E732E8A1
:104E30004AE550E40E9462EB0E94A0F16093500C9E
:104E40007093510C8093520C9093530CDF91CF913F
:104E50001F910F91FF90EF90DF90CF90BF90AF9098
:104E600008950F931F93CF93DF9301EB14E1C4E5F3
:104E7000DCE0F80121913191419151918F0160E085
:104E800070E080E89FE30E9411F069937993899321
:104E90009993FCE0C436DF0761F70E9441C7DF91B8
:104EA000CF911F910F915FCFCF92DF92EF92FF9240
:104EB0000F931F93C12CD12C76018C012CE632E08C
:104EC00048E652E064E672E080E692E00E94EBC5BC
:104ED0001F910F91FF90EF90DF90CF9008952F9248
:104EE0003F924F925F926F927F928F929F92AF927A
:104EF000BF92CF92DF92EF92FF920F931F93CF93C7
:104F0000DF93D62FC72FFC0180809180A280B380D1
:104F1000C501B40120E831E541E050E00E94D7EE40
:104F2000C9016DE671E00E940AF26B017C01C501C6
:104F3000B40120E13EE040E050E00E94D7EECA011B
:104F4000B90128E130E040E050E00E94D7EE362E73
:104F5000272E062F172F8CE3482E512C612C712CF5
:104F6000C501B401A30192010E94D7EEB62EA72E6F
:104F7000CA01B901A30192010E94D7EECB01C1146D
:104F8000D10479F1AF92BF927F936F932F923F92AA
:104F9000FF92EF92DF92CF928EE490E19F938F93F6
:104FA000CF93DF930E94CEEA8DB79EB70E960FB6D1
:104FB000F8949EBF0FBE8DBF8D2F9C2FDF91CF9198
:104FC0001F910F91FF90EF90DF90CF90BF90AF9027
:104FD0009F908F907F906F905F904F903F902F9019
:104FE0000895E114F104C9F0AF92BF927F936F93DB
:104FF0002F923F92FF92EF928EE390E19F938F93D7
:10500000CF93DF930E94CEEAEDB7FEB73C960FB682
:10501000F894FEBF0FBEEDBFCFCF012BB9F0AF921A
:10502000BF927F936F932F923F9282E390E19F9381
:105030008F93CF93DF930E94CEEA8DB79EB70A96E7
:105040000FB6F8949EBF0FBE8DBFB6CF892BA9F0C7
:10505000AF92BF927F936F938AE290E19F938F9379
:10506000CF93DF930E94CEEAEDB7FEB738960FB626
:10507000F894FEBF0FBEEDBF9FCFAF92BF9286E206
:1050800090E19F938F93CF93DF930E94CEEA0F908E
:105090000F900F900F900F900F908ECF8091500532
:1050A00090915105009731F04AE050E070E060E0E7
:1050B0000C9468E960E070E0CB01089580915005A0
:1050C00090915105009731F04AE050E070E060E0C7
:1050D0000C943DE860E070E0CB010895EFDFCB0178
:1050E00008950F931F93CF93809150059091510590
:1050F0000097E9F0FC018F01C1912C2F2F7D81F0E9
:10510000C53411F0C536B9F7F801108270E060E0DF
:105110000E94E8E6F801C083CF911F910F91089596
:1051200070E060E0CF911F910F910C94E8E660E091
:1051300070E0CB01F1CF8091F51A83FF03C084604A
:105140008093F51A0895FC0180818823F9F0853E4B
:10515000E9F08E32D9F08091E40B8E32B9F093856C
:10516000892F8A7099F4987121E0903109F020E03C
:105170008091F51A20FB84F98093F51A903141F063
:105180008085873419F481858E3711F480E0089585
:1051900081E00895FC0120E03EE2DB014D91BD017C
:1051A000403249F0283011F430833196DB011197F9
:1051B0004C91408331962F5F2B3079F71082089500
:1051C0000F930FB70F9300916E000B7F00936E004B
:1051D00078940F930BB70F930CB70F921F922F93E6
:1051E0003F934F935F936F937F938F939F93AF936F
:1051F000BF93EF93FF9311240E942545FF91EF91F8
:10520000BF91AF919F918F917F916F915F914F91DE
:105210003F912F911F900F900CBF0F910BBF0F91DB
:105220000460F89400936E000F910FBF0F911895D2
:10523000CF93DF93C0911C0CD0911D0C209729F1C6
:105240006091180C7091190C80911A0C90911B0CA4
:105250000E9479F06E5F7F4F24976C177D07ACF446
:1052600070930B0760930A070E9421CA605A754128
:105270008F4F9F4F60930C0770930D0780930E071D
:1052800090930F07DF91CF91089510920C07109221
:105290000D0710920E0710920F07F4CF10922207FD
:1052A00080915C0290915D020F971816190614F414
:1052B00090E080E09093FC158093FB150E942DCA2E
:1052C00010921D0C10921C0CB3DF80915C02909127
:1052D0005D020F971816190614F490E080E0909381
:1052E000FC158093FB150E942DCA1092FD152C9879
:1052F00010921D0C10921C0C10921E0C8091020139
:1053000080728093000108958F929F92AF92BF9216
:10531000CF92DF92EF92FF920F931F93CF93DF9381
:10532000B0E4A0E06A2F70E0AB014B0F511D559522
:105330004795411119C0E2E8F1E265917491072E99
:10534000000C880B990B0E9403EBDF91CF911F910A
:105350000F91FF90EF90DF90CF90BF90AF909F9014
:105360008F900895B42FE0CFA41711F0B41303C0A9
:10537000EEE7F2E2E2CF9A0121503109220F331F0A
:10538000220F331FF901E058FE4DE590F490F9012A
:10539000EC57FE4DC591D4918E159F051CF3A42F9B
:1053A000C817D9070CF4BECFF901EE57FE4D059191
:1053B0001491F901EA57FE4DC590D490BC016E19C5
:1053C0007F09072E000C880B990B0E9403EB4B0101
:1053D0005C01B601601B710B072E000C880B990B4A
:1053E0000E9403EB9B01AC01C501B4010E9462EB7A
:1053F0004B015C01BE016E197F09072E000C880B62
:10540000990B0E9403EB9B01AC01C501B4010E9402
:1054100011F06B017C01B801110F880B990B0E94F0
:1054200003EB9B01AC01C701B6010E9435EF8DCFA4
:10543000CF93DF93C3EFD5E18A819B810E9426B190
:105440006C837D838E839F83C4E1DCE08A819B81B2
:105450005BDF6C837D838E839F83A89510922307E7
:10546000DF91CF910895BC012091B2063091B3062F
:105470004091B2065091B3062417350731F481E00C
:105480002617370709F080E008959A01F1CF0F93AE
:105490000FB70F9300916E000F930B7F00936E0078
:1054A00000916F000D7F00936F000F930BB70F9368
:1054B0000CB70F921F922F933F934F935F936F936D
:1054C0007F938F939F93AF93BF93EF93FF93112499
:1054D000E7D3FF91EF91BF91AF919F918F917F9112
:1054E0006F915F914F913F912F911F900F900CBF43
:1054F0000F910BBF0F910260F89400936F000F9112
:1055000000936E000F910FBF0F9118958091B70710
:1055100080FF1DC0899A8FEF809363068091B70743
:10552000869580FF17C08F988FEF809364068091D7
:10553000B7078695869580FF10C080910B01827019
:105540008093090143988FEF8093650608958998A9
:1055500081E0E2CF8F9A81E0E8CF80910B018095C6
:10556000827080930901439A81E0EECF20915C0222
:1055700030915D022F503109821793070CF49C0182
:105580003093FC152093FB150C942DCA0F931F9399
:10559000CF93DF9300D01F92CDB7DEB72091330CAD
:1055A0002223E1F08C0108960E94D71F69837A8339
:1055B0008B839C83BE016F5F7F4FC8010E945C1E7E
:1055C0009B01AC01F80160857185828593850E94FD
:1055D00035EFF80160877187828793870F900F906E
:1055E0000F900F90DF91CF911F910F9108952F92FF
:1055F0003F924F925F926F927F928F929F92AF9263
:10560000BF92CF92DF92EF92FF920F931F93CF93AF
:10561000DF93CDB7DEB76C970FB6F894DEBF0FBE41
:10562000CDBF8C015B015A834983FC01EF5AFF4FC8
:10563000208131814281538129873A874B875C875A
:10564000CA01B9010E9401EB6B017C01D5012D91CA
:105650003D914D915C910E9462EB0E94FBEF2B010A
:105660003C01E981FA812081318142815381C70166
:10567000B6010E9462EB0E94FBEF4B015C01C3018B
:10568000B2010E947EF0698B7A8B8B8B9C8B683782
:1056900071058105910540F428E730E040E050E0D5
:1056A000298B3A8B4B8B5C8BC501B4010E947EF039
:1056B0006D877E878F87988B683771058105910587
:1056C00040F448E750E060E070E04D875E876F8708
:1056D000788BF801E35AFF4F4080518062807380DD
:1056E000C301B2010E9403EB69837A838B839C839D
:1056F00069897A898B899C890E9401EB6D8B7E8BED
:105700008F8B988F20E030E0A90169817A818B81AD
:105710009C810E94FDEA882309F4E1C1A70196015A
:10572000C701B6010E9462EB4B015C012D893E89E5
:105730004F89588DCA01B9010E9462EB9B01AC01EF
:10574000C501B4010E9434EF4B015C0129813A810B
:105750004B815C81CA01B9010E9435EF9B01AC010C
:10576000C501B4010E9411F00E94FBEF0E947EF07F
:105770006D837E838F83988766277727CB01641993
:105780007509860997090E9403EB4B015C016D8541
:105790007E858F8598890E9401EB2B013C0120E0DA
:1057A00030E0A901C501B4010E94FDEA882309F493
:1057B0009AC1A3019201C301B2010E9462EB698FF9
:1057C0007A8F8B8F9C8FA7019601C701B6010E942B
:1057D00062EB9B01AC01698D7A8D8B8D9C8D0E9453
:1057E00034EF6B017C01A5019401C501B4010E9455
:1057F00035EF9B01AC01C701B6010E9411F00E9478
:10580000AAF0D80195968D909D90AD90BC909897F8
:10581000750164012D813E814F815885C21AD30ADA
:10582000E40AF50A0E947EF0C61AD70AE80AF90AC5
:10583000F7FE8EC02D893E894F89588DCA01B90166
:105840000E9462EB6B017C0129813A814B815C8172
:10585000CA01B9010E9435EF69877A878B879C87D7
:1058600020E030E0A90169817A818B819C810E94CE
:10587000FDEA882309F43BC1C501B4010E9401EB94
:1058800029853A854B855C850E9462EBA7019601CC
:105890000E9434EF6D837E838F839887A3019201EA
:1058A000C301B2010E9462EB9B01AC016D817E815C
:1058B0008F8198850E9435EF2B013C0120E030E07C
:1058C00040E850E469817A818B819C810E9462EB7F
:1058D0009B01AC01C301B2010E9411F00E94FBEFD9
:1058E0002B013C0120E030E0A9010E945BF1181679
:1058F0001CF0412C512C3201C301B2010E947EF0F8
:105900006D837E838F83988786169706A806B906CF
:1059100020F48D829E82AF82B8866D817E818F81D8
:1059200098850E9401EB29853A854B855C850E940C
:1059300062EBA70196010E9435EF0E94A0F10E9440
:105940007EF069877A878B879C87C12CD12C760162
:1059500069857A858B859C8529893A894B895C89FB
:10596000621B730B840B950B0E9401EB29813A811A
:105970004B815C810E9411F020E034E244EF59E455
:105980000E9462EB0E947EF04B015C0169857A8582
:105990008B859C852D853E854F855889621B730BB1
:1059A000840B950B0E9401EB29813A814B815C812C
:1059B0000E9411F020E034E244EF59E40E9462EBCF
:1059C0000E947EF02B013C013FE683169104A10466
:1059D000B10408F090C0F401EE0FFF1FEE0FFF1F9F
:1059E000ED59F94E85919591A591B4918983292E10
:1059F0003A2EBD8B4FE6441651046104710408F041
:105A000083C0F201EE0FFF1FEE0FFF1FED59F94E9D
:105A100045915591659174919A01CB014D815E81BB
:105A20006F817885D80199964D935D936D937C93A2
:105A30009C974C0D5D1D6E1D7F1DF80145A756A757
:105A400067A770ABEB5AFF4F49895A896B897C89EC
:105A50004083518362837383D5968D929D92AD92DC
:105A6000BC92D897F80141AE52AE63AE74AEFD96CB
:105A700049814083218232825D8953833496208319
:105A800031838283938369857A858B859C85D196C2
:105A90006D937D938D939C93D49778962D853E85B9
:105AA0004F85588920833183428353836C960FB688
:105AB000F894DEBF0FBECDBFDF91CF911F910F9144
:105AC000FF90EF90DF90CF90BF90AF909F908F901E
:105AD0007F906F905F904F903F902F90089560E07F
